:1000000074FFF580E500F5A090040031B131E39074
:10001000040A31BD31E390040531B131E390041499
:1000200031BD31E390040031B131E390042331BD9F
:1000300031E390040531B131E37A047840E4020001
:10004000ECF6742A31D631E308DAF290040031B1CB
:1000500031E390042D31BD31E3E479407A0490041A
:100060007BE49387F0B5F006A309DAF58038E479EC
:10007000407A0490047FE49387F0B5F006A309DA90
:10008000F5804590040031B131E390046131BD3118
:10009000E390040531B131E390047131BD31E3C225
:1000A000B1C2B002000890040031B131E3900437CE
:1000B00031BD31E390040031B131E390044431BDEE
:1000C00031E3D2B0C2B1802290040031B131E3906B
:1000D000043731BD31E390040031B131E390045372
:1000E00031BD31E3C2B0D2B1800080FED2A0D2A136
:1000F000D2A231A8C2A0D2A1D2A220800612016A47
:1001000002004120810612017F0200412082061276
:100110000193020041D2A0C2A1D2A2208006120106
:1001200071020041208106120186020041208206F0
:1001300012019A020041208306120163020041D29B
:10014000A0D2A1C2A2208006120178020041208123
:100150000612018D0200412082061201A102004117
:100160000200ECE474001201A822E474011201A858
:1001700022E474021201A822E474031201A822E40A
:1001800074041201A822E474051201A82274061254
:1001900001A822E474071201A822E474081201A83D
:1001A00022E474091201A8227BC87C96DCFEDBFAEB
:1001B00022E49331C931E3A3600280F522E4933154
:1001C000D631E3A3600280F522F590C2A3C2A4D287
:1001D000A531E3C2A522F590D2A3C2A4D2A531E3F2
:0C01E000C2A5227BC87C96DCFEDBFA2264
:10040000380E010600380E06C000444F4F52204CF3
:100410004F434B004D454348414E4943414C2053C7
:1004200059530050415353574F52443A0054554E7C
:100430004747552E2E2E0048414C4F204641444CF4
:100440004921210050696E7475205465726B756E78
:1004500063690050696E74752054657262756B61D2
:100460000050617373776F72642053616C61682010
:1004700000414343455353494E47000102030404DE
:0304800003020173
:00000001FF
